{
  "contractName": "Microgrid",
  "abi": [
    {
      "anonymous": false,
      "inputs": [
        {
          "indexed": true,
          "internalType": "address",
          "name": "from",
          "type": "address"
        },
        {
          "indexed": true,
          "internalType": "address",
          "name": "to",
          "type": "address"
        },
        {
          "indexed": false,
          "internalType": "uint256",
          "name": "transferAmount",
          "type": "uint256"
        }
      ],
      "name": "EnergyTransferred",
      "type": "event"
    },
    {
      "anonymous": false,
      "inputs": [
        {
          "indexed": true,
          "internalType": "address",
          "name": "from",
          "type": "address"
        },
        {
          "indexed": true,
          "internalType": "address",
          "name": "to",
          "type": "address"
        },
        {
          "indexed": false,
          "internalType": "uint256",
          "name": "amount",
          "type": "uint256"
        },
        {
          "indexed": false,
          "internalType": "uint256",
          "name": "timestamp",
          "type": "uint256"
        }
      ],
      "name": "TransactionAdded",
      "type": "event"
    },
    {
      "anonymous": false,
      "inputs": [
        {
          "indexed": false,
          "internalType": "uint256",
          "name": "microGridUniqueId",
          "type": "uint256"
        },
        {
          "indexed": false,
          "internalType": "uint256",
          "name": "batteryIndex",
          "type": "uint256"
        },
        {
          "indexed": false,
          "internalType": "uint256",
          "name": "minCapacity",
          "type": "uint256"
        },
        {
          "indexed": false,
          "internalType": "uint256",
          "name": "maxCapacity",
          "type": "uint256"
        },
        {
          "indexed": false,
          "internalType": "uint256",
          "name": "Charge",
          "type": "uint256"
        },
        {
          "indexed": false,
          "internalType": "uint16",
          "name": "maxEfficiency",
          "type": "uint16"
        },
        {
          "indexed": false,
          "internalType": "uint16",
          "name": "initSoc",
          "type": "uint16"
        }
      ],
      "name": "addBatteryData",
      "type": "event"
    },
    {
      "anonymous": false,
      "inputs": [
        {
          "indexed": false,
          "internalType": "uint256",
          "name": "microGridUniqueId",
          "type": "uint256"
        },
        {
          "indexed": false,
          "internalType": "uint256",
          "name": "GEId",
          "type": "uint256"
        },
        {
          "indexed": false,
          "internalType": "uint256",
          "name": "charge",
          "type": "uint256"
        },
        {
          "indexed": false,
          "internalType": "uint256",
          "name": "energyProduction",
          "type": "uint256"
        }
      ],
      "name": "addGreenEnergyData",
      "type": "event"
    },
    {
      "anonymous": false,
      "inputs": [
        {
          "indexed": false,
          "internalType": "uint256",
          "name": "microGridUniqueId",
          "type": "uint256"
        },
        {
          "indexed": false,
          "internalType": "uint256",
          "name": "gridIndex",
          "type": "uint256"
        },
        {
          "indexed": false,
          "internalType": "uint256",
          "name": "charge",
          "type": "uint256"
        },
        {
          "indexed": false,
          "internalType": "uint256",
          "name": "maxImport",
          "type": "uint256"
        },
        {
          "indexed": false,
          "internalType": "uint256",
          "name": "maxExport",
          "type": "uint256"
        }
      ],
      "name": "addGridData",
      "type": "event"
    },
    {
      "anonymous": false,
      "inputs": [
        {
          "indexed": false,
          "internalType": "uint256",
          "name": "microGridUniqueId",
          "type": "uint256"
        },
        {
          "indexed": false,
          "internalType": "uint256",
          "name": "loadId",
          "type": "uint256"
        },
        {
          "indexed": false,
          "internalType": "uint256",
          "name": "energyRequired",
          "type": "uint256"
        }
      ],
      "name": "addLoadData",
      "type": "event"
    },
    {
      "anonymous": false,
      "inputs": [
        {
          "indexed": false,
          "internalType": "uint256",
          "name": "uniqueId",
          "type": "uint256"
        }
      ],
      "name": "microGridAdded",
      "type": "event"
    },
    {
      "anonymous": false,
      "inputs": [
        {
          "indexed": false,
          "internalType": "string",
          "name": "name",
          "type": "string"
        },
        {
          "components": [
            {
              "internalType": "uint256",
              "name": "uniqueID",
              "type": "uint256"
            },
            {
              "internalType": "uint256",
              "name": "minCapacity",
              "type": "uint256"
            },
            {
              "internalType": "uint256",
              "name": "maxCapacity",
              "type": "uint256"
            },
            {
              "internalType": "uint256",
              "name": "Charge",
              "type": "uint256"
            },
            {
              "internalType": "uint16",
              "name": "maxEfficiency",
              "type": "uint16"
            },
            {
              "internalType": "uint16",
              "name": "initSoc",
              "type": "uint16"
            }
          ],
          "indexed": false,
          "internalType": "struct Microgrid.Battery[]",
          "name": "batteryUsing",
          "type": "tuple[]"
        },
        {
          "components": [
            {
              "internalType": "uint256",
              "name": "loadId",
              "type": "uint256"
            },
            {
              "internalType": "address",
              "name": "userAddress",
              "type": "address"
            },
            {
              "internalType": "uint256",
              "name": "energyRequired",
              "type": "uint256"
            }
          ],
          "indexed": false,
          "internalType": "struct Microgrid.Load[]",
          "name": "loads",
          "type": "tuple[]"
        },
        {
          "components": [
            {
              "internalType": "uint256",
              "name": "uniqueID",
              "type": "uint256"
            },
            {
              "internalType": "uint256",
              "name": "charge",
              "type": "uint256"
            },
            {
              "internalType": "uint256",
              "name": "energyProduction",
              "type": "uint256"
            }
          ],
          "indexed": false,
          "internalType": "struct Microgrid.GreenEnergy[]",
          "name": "greenEnergies",
          "type": "tuple[]"
        },
        {
          "components": [
            {
              "internalType": "uint256",
              "name": "uniqueID",
              "type": "uint256"
            },
            {
              "internalType": "uint256",
              "name": "charge",
              "type": "uint256"
            },
            {
              "internalType": "uint256",
              "name": "maxImport",
              "type": "uint256"
            },
            {
              "internalType": "uint256",
              "name": "maxExport",
              "type": "uint256"
            }
          ],
          "indexed": false,
          "internalType": "struct Microgrid.Grid[]",
          "name": "powerGrid",
          "type": "tuple[]"
        }
      ],
      "name": "microgridDetails",
      "type": "event"
    },
    {
      "inputs": [
        {
          "internalType": "address",
          "name": "",
          "type": "address"
        }
      ],
      "name": "address_Consumer",
      "outputs": [
        {
          "internalType": "string",
          "name": "name",
          "type": "string"
        },
        {
          "internalType": "string",
          "name": "micrometerid",
          "type": "string"
        },
        {
          "internalType": "uint256",
          "name": "energyBalance",
          "type": "uint256"
        },
        {
          "internalType": "uint256",
          "name": "wallet",
          "type": "uint256"
        }
      ],
      "stateMutability": "view",
      "type": "function",
      "constant": true
    },
    {
      "inputs": [
        {
          "internalType": "address",
          "name": "",
          "type": "address"
        }
      ],
      "name": "address_Producer",
      "outputs": [
        {
          "internalType": "string",
          "name": "name",
          "type": "string"
        },
        {
          "internalType": "uint256",
          "name": "uniqueID",
          "type": "uint256"
        },
        {
          "internalType": "bool",
          "name": "isProducer",
          "type": "bool"
        }
      ],
      "stateMutability": "view",
      "type": "function",
      "constant": true
    },
    {
      "inputs": [
        {
          "internalType": "address",
          "name": "",
          "type": "address"
        }
      ],
      "name": "address_Prosumer",
      "outputs": [
        {
          "internalType": "string",
          "name": "name",
          "type": "string"
        },
        {
          "internalType": "uint256",
          "name": "uinqueID",
          "type": "uint256"
        },
        {
          "internalType": "bool",
          "name": "isProsumer",
          "type": "bool"
        }
      ],
      "stateMutability": "view",
      "type": "function",
      "constant": true
    },
    {
      "inputs": [],
      "name": "microGridId",
      "outputs": [
        {
          "internalType": "uint256",
          "name": "",
          "type": "uint256"
        }
      ],
      "stateMutability": "view",
      "type": "function",
      "constant": true
    },
    {
      "inputs": [
        {
          "internalType": "uint256",
          "name": "",
          "type": "uint256"
        }
      ],
      "name": "microGrids",
      "outputs": [
        {
          "internalType": "string",
          "name": "microGridName",
          "type": "string"
        },
        {
          "internalType": "uint256",
          "name": "uniqueId",
          "type": "uint256"
        }
      ],
      "stateMutability": "view",
      "type": "function",
      "constant": true
    },
    {
      "inputs": [],
      "name": "perUnit",
      "outputs": [
        {
          "internalType": "uint256",
          "name": "",
          "type": "uint256"
        }
      ],
      "stateMutability": "view",
      "type": "function",
      "constant": true
    },
    {
      "inputs": [
        {
          "internalType": "uint256",
          "name": "",
          "type": "uint256"
        }
      ],
      "name": "transactions",
      "outputs": [
        {
          "internalType": "address",
          "name": "from",
          "type": "address"
        },
        {
          "internalType": "address",
          "name": "to",
          "type": "address"
        },
        {
          "internalType": "uint256",
          "name": "amount",
          "type": "uint256"
        },
        {
          "internalType": "uint256",
          "name": "timestamp",
          "type": "uint256"
        }
      ],
      "stateMutability": "view",
      "type": "function",
      "constant": true
    },
    {
      "inputs": [
        {
          "internalType": "string",
          "name": "name",
          "type": "string"
        }
      ],
      "name": "createMicroGrid",
      "outputs": [],
      "stateMutability": "nonpayable",
      "type": "function"
    },
    {
      "inputs": [
        {
          "internalType": "uint256",
          "name": "id",
          "type": "uint256"
        }
      ],
      "name": "viewMicrogridDetails",
      "outputs": [],
      "stateMutability": "nonpayable",
      "type": "function"
    },
    {
      "inputs": [
        {
          "internalType": "uint256",
          "name": "uniqueId",
          "type": "uint256"
        },
        {
          "internalType": "uint256",
          "name": "minCapacity",
          "type": "uint256"
        },
        {
          "internalType": "uint256",
          "name": "maxCapacity",
          "type": "uint256"
        },
        {
          "internalType": "uint256",
          "name": "Charge",
          "type": "uint256"
        },
        {
          "internalType": "uint16",
          "name": "maxEfficiency",
          "type": "uint16"
        },
        {
          "internalType": "uint16",
          "name": "initSoc",
          "type": "uint16"
        }
      ],
      "name": "addBattery",
      "outputs": [],
      "stateMutability": "nonpayable",
      "type": "function"
    },
    {
      "inputs": [
        {
          "internalType": "address",
          "name": "userAddress",
          "type": "address"
        },
        {
          "internalType": "uint256",
          "name": "energyRequired",
          "type": "uint256"
        },
        {
          "internalType": "uint256",
          "name": "uniqueId",
          "type": "uint256"
        }
      ],
      "name": "addLoad",
      "outputs": [],
      "stateMutability": "nonpayable",
      "type": "function"
    },
    {
      "inputs": [
        {
          "internalType": "uint256",
          "name": "uniqueId",
          "type": "uint256"
        },
        {
          "internalType": "uint256",
          "name": "charge",
          "type": "uint256"
        },
        {
          "internalType": "uint256",
          "name": "energyProduction",
          "type": "uint256"
        }
      ],
      "name": "addGreenEnergy",
      "outputs": [],
      "stateMutability": "nonpayable",
      "type": "function"
    },
    {
      "inputs": [
        {
          "internalType": "uint256",
          "name": "uniqueId",
          "type": "uint256"
        },
        {
          "internalType": "uint256",
          "name": "charge",
          "type": "uint256"
        },
        {
          "internalType": "uint256",
          "name": "maxImport",
          "type": "uint256"
        },
        {
          "internalType": "uint256",
          "name": "maxExport",
          "type": "uint256"
        }
      ],
      "name": "addPowerGrid",
      "outputs": [],
      "stateMutability": "nonpayable",
      "type": "function"
    },
    {
      "inputs": [
        {
          "internalType": "string",
          "name": "name",
          "type": "string"
        },
        {
          "internalType": "uint256",
          "name": "uniqueID",
          "type": "uint256"
        }
      ],
      "name": "addProducer",
      "outputs": [],
      "stateMutability": "nonpayable",
      "type": "function"
    },
    {
      "inputs": [
        {
          "internalType": "string",
          "name": "name",
          "type": "string"
        },
        {
          "internalType": "uint256",
          "name": "uniqueID",
          "type": "uint256"
        },
        {
          "internalType": "address",
          "name": "producerAddress",
          "type": "address"
        }
      ],
      "name": "addAnotherProducer",
      "outputs": [],
      "stateMutability": "nonpayable",
      "type": "function"
    },
    {
      "inputs": [
        {
          "internalType": "string",
          "name": "name",
          "type": "string"
        },
        {
          "internalType": "uint256",
          "name": "uniqueID",
          "type": "uint256"
        }
      ],
      "name": "addProsumer",
      "outputs": [],
      "stateMutability": "nonpayable",
      "type": "function"
    },
    {
      "inputs": [
        {
          "internalType": "string",
          "name": "name",
          "type": "string"
        },
        {
          "internalType": "uint256",
          "name": "uniqueID",
          "type": "uint256"
        },
        {
          "internalType": "address",
          "name": "prosumerAddress",
          "type": "address"
        }
      ],
      "name": "addAnotherProsumer",
      "outputs": [],
      "stateMutability": "nonpayable",
      "type": "function"
    },
    {
      "inputs": [
        {
          "internalType": "uint256",
          "name": "uniqueId",
          "type": "uint256"
        },
        {
          "internalType": "address",
          "name": "producer",
          "type": "address"
        }
      ],
      "name": "addProducerToMicroGrid",
      "outputs": [],
      "stateMutability": "nonpayable",
      "type": "function"
    },
    {
      "inputs": [
        {
          "internalType": "uint256",
          "name": "uniqueId",
          "type": "uint256"
        },
        {
          "internalType": "address",
          "name": "producer",
          "type": "address"
        }
      ],
      "name": "addConsumerToMicroGrid",
      "outputs": [],
      "stateMutability": "nonpayable",
      "type": "function"
    },
    {
      "inputs": [
        {
          "internalType": "uint256",
          "name": "uniqueId",
          "type": "uint256"
        },
        {
          "internalType": "address",
          "name": "prosumer",
          "type": "address"
        }
      ],
      "name": "addProsumerToMicroGrid",
      "outputs": [],
      "stateMutability": "nonpayable",
      "type": "function"
    },
    {
      "inputs": [
        {
          "internalType": "uint256",
          "name": "uniqueId",
          "type": "uint256"
        }
      ],
      "name": "showAllProducers",
      "outputs": [
        {
          "internalType": "address[]",
          "name": "",
          "type": "address[]"
        }
      ],
      "stateMutability": "view",
      "type": "function",
      "constant": true
    },
    {
      "inputs": [
        {
          "internalType": "uint256",
          "name": "uniqueId",
          "type": "uint256"
        }
      ],
      "name": "showAllProsumer",
      "outputs": [
        {
          "internalType": "address[]",
          "name": "",
          "type": "address[]"
        }
      ],
      "stateMutability": "view",
      "type": "function",
      "constant": true
    },
    {
      "inputs": [
        {
          "internalType": "string",
          "name": "name",
          "type": "string"
        },
        {
          "internalType": "string",
          "name": "micrometerid",
          "type": "string"
        },
        {
          "internalType": "uint256",
          "name": "energyBalance",
          "type": "uint256"
        }
      ],
      "name": "addConsumer",
      "outputs": [],
      "stateMutability": "nonpayable",
      "type": "function"
    },
    {
      "inputs": [
        {
          "internalType": "address payable",
          "name": "producerAddress",
          "type": "address"
        }
      ],
      "name": "purchaseEnergy_to_Producer",
      "outputs": [],
      "stateMutability": "payable",
      "type": "function",
      "payable": true
    },
    {
      "inputs": [
        {
          "internalType": "address payable",
          "name": "prosumerAddress",
          "type": "address"
        }
      ],
      "name": "purchaseEnergy_to_Prosumer",
      "outputs": [],
      "stateMutability": "payable",
      "type": "function",
      "payable": true
    },
    {
      "inputs": [
        {
          "internalType": "address",
          "name": "_from",
          "type": "address"
        },
        {
          "internalType": "address",
          "name": "_to",
          "type": "address"
        },
        {
          "internalType": "uint256",
          "name": "_amount",
          "type": "uint256"
        }
      ],
      "name": "addTransaction",
      "outputs": [],
      "stateMutability": "nonpayable",
      "type": "function"
    },
    {
      "inputs": [],
      "name": "getTransactionCount",
      "outputs": [
        {
          "internalType": "uint256",
          "name": "",
          "type": "uint256"
        }
      ],
      "stateMutability": "view",
      "type": "function",
      "constant": true
    },
    {
      "inputs": [
        {
          "internalType": "uint256",
          "name": "index",
          "type": "uint256"
        }
      ],
      "name": "getTransaction",
      "outputs": [
        {
          "internalType": "address",
          "name": "from",
          "type": "address"
        },
        {
          "internalType": "address",
          "name": "to",
          "type": "address"
        },
        {
          "internalType": "uint256",
          "name": "amount",
          "type": "uint256"
        },
        {
          "internalType": "uint256",
          "name": "timestamp",
          "type": "uint256"
        }
      ],
      "stateMutability": "view",
      "type": "function",
      "constant": true
    },
    {
      "inputs": [],
      "name": "consumerData",
      "outputs": [
        {
          "internalType": "string",
          "name": "",
          "type": "string"
        }
      ],
      "stateMutability": "view",
      "type": "function",
      "constant": true
    },
    {
      "inputs": [],
      "name": "showMicroGridId",
      "outputs": [
        {
          "internalType": "uint256",
          "name": "",
          "type": "uint256"
        }
      ],
      "stateMutability": "view",
      "type": "function",
      "constant": true
    }
  ],
  "bytecode": "0x6080604052660f66538f515400600055600060015534801561002057600080fd5b50613855806100306000396000f3fe6080604052600436106101cd5760003560e01c806365eb93e2116100f7578063c0eef43a11610095578063db0dcf9911610064578063db0dcf9914610698578063e1cf9a27146106c1578063e7054bcd146106ea578063fe73b27f14610715576101cd565b8063c0eef43a146105db578063c866954414610604578063cabb607814610644578063d5f348b01461066d576101cd565b8063865d3ed0116100d1578063865d3ed0146105205780638d662daf14610549578063929b67f5146105725780639ace38c21461059b576101cd565b806365eb93e21461049c5780636c8840d9146104b85780637e3504e0146104e1576101cd565b80632e41c1c21161016f5780634eb406761161013e5780634eb40676146103e25780634f9ccc0c1461040b5780635b07ee1b1461044a5780635b5fcf4014610473576101cd565b80632e41c1c21461030f5780632e7700f01461033a57806331d9c4cc1461036557806333ea3dc8146103a2576101cd565b8063173017fb116101ab578063173017fb1461024d57806319f336421461027857806320d7596c146102b657806324e10595146102f3576101cd565b806303ffcbaa146101d257806307e9eb6c146101fb5780630ba0b18114610224575b600080fd5b3480156101de57600080fd5b506101f960048036038101906101f491906122c9565b61073e565b005b34801561020757600080fd5b50610222600480360381019061021d919061238e565b6108b6565b005b34801561023057600080fd5b5061024b60048036038101906102469190612514565b6109c0565b005b34801561025957600080fd5b50610262610a72565b60405161026f9190612592565b60405180910390f35b34801561028457600080fd5b5061029f600480360381019061029a91906125ad565b610a78565b6040516102ad929190612662565b60405180910390f35b3480156102c257600080fd5b506102dd60048036038101906102d891906125ad565b610b24565b6040516102ea9190612750565b60405180910390f35b61030d600480360381019061030891906127b0565b610bc8565b005b34801561031b57600080fd5b50610324610d00565b6040516103319190612592565b60405180910390f35b34801561034657600080fd5b5061034f610d0a565b60405161035c9190612592565b60405180910390f35b34801561037157600080fd5b5061038c600480360381019061038791906125ad565b610d17565b6040516103999190612750565b60405180910390f35b3480156103ae57600080fd5b506103c960048036038101906103c491906125ad565b610dbb565b6040516103d994939291906127ec565b60405180910390f35b3480156103ee57600080fd5b5061040960048036038101906104049190612831565b610e92565b005b34801561041757600080fd5b50610432600480360381019061042d919061288d565b610f43565b604051610441939291906128d5565b60405180910390f35b34801561045657600080fd5b50610471600480360381019061046c91906125ad565b611002565b005b34801561047f57600080fd5b5061049a6004803603810190610495919061238e565b611101565b005b6104b660048036038101906104b191906127b0565b61120b565b005b3480156104c457600080fd5b506104df60048036038101906104da9190612514565b61134e565b005b3480156104ed57600080fd5b506105086004803603810190610503919061288d565b611400565b604051610517939291906128d5565b60405180910390f35b34801561052c57600080fd5b5061054760048036038101906105429190612913565b6114bf565b005b34801561055557600080fd5b50610570600480360381019061056b9190612966565b611624565b005b34801561057e57600080fd5b5061059960048036038101906105949190612a2b565b611710565b005b3480156105a757600080fd5b506105c260048036038101906105bd91906125ad565b6118e8565b6040516105d294939291906127ec565b60405180910390f35b3480156105e757600080fd5b5061060260048036038101906105fd919061238e565b611968565b005b34801561061057600080fd5b5061062b6004803603810190610626919061288d565b6119e3565b60405161063b9493929190612ab8565b60405180910390f35b34801561065057600080fd5b5061066b60048036038101906106669190612831565b611b23565b005b34801561067957600080fd5b50610682611bd4565b60405161068f9190612592565b60405180910390f35b3480156106a457600080fd5b506106bf60048036038101906106ba9190612b0b565b611bda565b005b3480156106cd57600080fd5b506106e860048036038101906106e39190612b5e565b611d96565b005b3480156106f657600080fd5b506106ff611ec1565b60405161070c9190612ba7565b60405180910390f35b34801561072157600080fd5b5061073c60048036038101906107379190612bc9565b612054565b005b60011515600560003373ffffffffffffffffffffffffffffffffffffffff1673ffffffffffffffffffffffffffffffffffffffff16815260200190815260200160002060020160009054906101000a900460ff161515146107d4576040517f08c379a00000000000000000000000000000000000000000000000000000000081526004016107cb90612c8e565b60405180910390fd5b60006002600086815260200190815260200160002090506000816005018054905090508160050160405180608001604052808381526020018781526020018681526020018581525090806001815401808255809150506001900390600052602060002090600402016000909190919091506000820151816000015560208201518160010155604082015181600201556060820151816003015550507fd69cb5512dc5fe64ac91c72683f3cc6a8e185659af6317f1efddaa6952cc8e2a86828787876040516108a6959493929190612cae565b60405180910390a1505050505050565b600360008273ffffffffffffffffffffffffffffffffffffffff1673ffffffffffffffffffffffffffffffffffffffff16815260200190815260200160002060020160009054906101000a900460ff16610945576040517f08c379a000000000000000000000000000000000000000000000000000000000815260040161093c90612d4d565b60405180910390fd5b60026000838152602001908152602001600020600601819080600181540180825580915050600190039060005260206000200160009091909190916101000a81548173ffffffffffffffffffffffffffffffffffffffff021916908373ffffffffffffffffffffffffffffffffffffffff1602179055505050565b6000604051806060016040528085815260200184815260200160011515815250905080600360008473ffffffffffffffffffffffffffffffffffffffff1673ffffffffffffffffffffffffffffffffffffffff1681526020019081526020016000206000820151816000019080519060200190610a3e9291906121dc565b506020820151816001015560408201518160020160006101000a81548160ff02191690831515021790555090505050505050565b60005481565b6002602052806000526040600020600091509050806000018054610a9b90612d9c565b80601f0160208091040260200160405190810160405280929190818152602001828054610ac790612d9c565b8015610b145780601f10610ae957610100808354040283529160200191610b14565b820191906000526020600020905b815481529060010190602001808311610af757829003601f168201915b5050505050908060010154905082565b606060026000838152602001908152602001600020600601805480602002602001604051908101604052809291908181526020018280548015610bbc57602002820191906000526020600020905b8160009054906101000a900473ffffffffffffffffffffffffffffffffffffffff1673ffffffffffffffffffffffffffffffffffffffff1681526020019060010190808311610b72575b50505050509050919050565b6000805434610bd79190612e2c565b905060006064600a34610bea9190612e5d565b610bf49190612e2c565b90508273ffffffffffffffffffffffffffffffffffffffff166108fc829081150290604051600060405180830381858888f19350505050158015610c3c573d6000803e3d6000fd5b5081600460003373ffffffffffffffffffffffffffffffffffffffff1673ffffffffffffffffffffffffffffffffffffffff1681526020019081526020016000206002016000828254610c8f9190612eb7565b925050819055508273ffffffffffffffffffffffffffffffffffffffff163373ffffffffffffffffffffffffffffffffffffffff167f314d9d54f4824ae491ddf2a96075427b4aa537d03004255d1ebaf12ffd29f3d884604051610cf39190612592565b60405180910390a3505050565b6000600154905090565b6000600680549050905090565b606060026000838152602001908152602001600020600801805480602002602001604051908101604052809291908181526020018280548015610daf57602002820191906000526020600020905b8160009054906101000a900473ffffffffffffffffffffffffffffffffffffffff1673ffffffffffffffffffffffffffffffffffffffff1681526020019060010190808311610d65575b50505050509050919050565b6000806000806006805490508510610e08576040517f08c379a0000000000000000000000000000000000000000000000000000000008152600401610dff90612f59565b60405180910390fd5b600060068681548110610e1e57610e1d612f79565b5b906000526020600020906004020190508060000160009054906101000a900473ffffffffffffffffffffffffffffffffffffffff168160010160009054906101000a900473ffffffffffffffffffffffffffffffffffffffff16826002015483600301549450945094509450509193509193565b6000604051806060016040528084815260200183815260200160011515815250905080600560003373ffffffffffffffffffffffffffffffffffffffff1673ffffffffffffffffffffffffffffffffffffffff1681526020019081526020016000206000820151816000019080519060200190610f109291906121dc565b506020820151816001015560408201518160020160006101000a81548160ff021916908315150217905550905050505050565b6003602052806000526040600020600091509050806000018054610f6690612d9c565b80601f0160208091040260200160405190810160405280929190818152602001828054610f9290612d9c565b8015610fdf5780601f10610fb457610100808354040283529160200191610fdf565b820191906000526020600020905b815481529060010190602001808311610fc257829003601f168201915b5050505050908060010154908060020160009054906101000a900460ff16905083565b60011515600560003373ffffffffffffffffffffffffffffffffffffffff1673ffffffffffffffffffffffffffffffffffffffff16815260200190815260200160002060020160009054906101000a900460ff16151514611098576040517f08c379a000000000000000000000000000000000000000000000000000000000815260040161108f90612c8e565b60405180910390fd5b60006002600083815260200190815260200160002090507fae63e8166b83be443c3e56e05113576ee313afdbe440d1512f7358530513621081600001826002018360030184600401856005016040516110f59594939291906135e6565b60405180910390a15050565b600560008273ffffffffffffffffffffffffffffffffffffffff1673ffffffffffffffffffffffffffffffffffffffff16815260200190815260200160002060020160009054906101000a900460ff16611190576040517f08c379a0000000000000000000000000000000000000000000000000000000008152600401611187906136a8565b60405180910390fd5b60026000838152602001908152602001600020600801819080600181540180825580915050600190039060005260206000200160009091909190916101000a81548173ffffffffffffffffffffffffffffffffffffffff021916908373ffffffffffffffffffffffffffffffffffffffff1602179055505050565b600080543461121a9190612e2c565b905060006064600a3461122d9190612e5d565b6112379190612e2c565b90508273ffffffffffffffffffffffffffffffffffffffff166108fc823461125f91906136c8565b9081150290604051600060405180830381858888f1935050505015801561128a573d6000803e3d6000fd5b5081600460003373ffffffffffffffffffffffffffffffffffffffff1673ffffffffffffffffffffffffffffffffffffffff16815260200190815260200160002060020160008282546112dd9190612eb7565b925050819055508273ffffffffffffffffffffffffffffffffffffffff163373ffffffffffffffffffffffffffffffffffffffff167f314d9d54f4824ae491ddf2a96075427b4aa537d03004255d1ebaf12ffd29f3d8846040516113419190612592565b60405180910390a3505050565b6000604051806060016040528085815260200184815260200160011515815250905080600560008473ffffffffffffffffffffffffffffffffffffffff1673ffffffffffffffffffffffffffffffffffffffff16815260200190815260200160002060008201518160000190805190602001906113cc9291906121dc565b506020820151816001015560408201518160020160006101000a81548160ff02191690831515021790555090505050505050565b600560205280600052604060002060009150905080600001805461142390612d9c565b80601f016020809104026020016040519081016040528092919081815260200182805461144f90612d9c565b801561149c5780601f106114715761010080835404028352916020019161149c565b820191906000526020600020905b81548152906001019060200180831161147f57829003601f168201915b5050505050908060010154908060020160009054906101000a900460ff16905083565b60011515600560003373ffffffffffffffffffffffffffffffffffffffff1673ffffffffffffffffffffffffffffffffffffffff16815260200190815260200160002060020160009054906101000a900460ff16151514611555576040517f08c379a000000000000000000000000000000000000000000000000000000000815260040161154c90612c8e565b60405180910390fd5b600060026000858152602001908152602001600020905060008160040180549050905081600401604051806060016040528083815260200186815260200185815250908060018154018082558091505060019003906000526020600020906003020160009091909190915060008201518160000155602082015181600101556040820151816002015550507f96f0b5d12777e770770aa7f046001ea09c3ec76a27e6332239c3540b568ef7708582868660405161161594939291906136fc565b60405180910390a15050505050565b6000670de0b6b3a76400003373ffffffffffffffffffffffffffffffffffffffff16316116519190612e2c565b90506000604051806080016040528086815260200185815260200184815260200183815250905080600460003373ffffffffffffffffffffffffffffffffffffffff1673ffffffffffffffffffffffffffffffffffffffff16815260200190815260200160002060008201518160000190805190602001906116d49291906121dc565b5060208201518160010190805190602001906116f19291906121dc565b5060408201518160020155606082015181600301559050505050505050565b60011515600560003373ffffffffffffffffffffffffffffffffffffffff1673ffffffffffffffffffffffffffffffffffffffff16815260200190815260200160002060020160009054906101000a900460ff161515146117a6576040517f08c379a000000000000000000000000000000000000000000000000000000000815260040161179d90612c8e565b60405180910390fd5b6000600260008881526020019081526020016000209050600081600201805490509050816002016040518060c001604052808381526020018981526020018881526020018781526020018661ffff1681526020018561ffff1681525090806001815401808255809150506001900390600052602060002090600502016000909190919091506000820151816000015560208201518160010155604082015181600201556060820151816003015560808201518160040160006101000a81548161ffff021916908361ffff16021790555060a08201518160040160026101000a81548161ffff021916908361ffff16021790555050507f7a996c70a429d049c375510397afdd445f2d8df80e1275624b60232bfda9590a888289898989896040516118d69796959493929190613750565b60405180910390a15050505050505050565b600681815481106118f857600080fd5b90600052602060002090600402016000915090508060000160009054906101000a900473ffffffffffffffffffffffffffffffffffffffff16908060010160009054906101000a900473ffffffffffffffffffffffffffffffffffffffff16908060020154908060030154905084565b60026000838152602001908152602001600020600701819080600181540180825580915050600190039060005260206000200160009091909190916101000a81548173ffffffffffffffffffffffffffffffffffffffff021916908373ffffffffffffffffffffffffffffffffffffffff1602179055505050565b6004602052806000526040600020600091509050806000018054611a0690612d9c565b80601f0160208091040260200160405190810160405280929190818152602001828054611a3290612d9c565b8015611a7f5780601f10611a5457610100808354040283529160200191611a7f565b820191906000526020600020905b815481529060010190602001808311611a6257829003601f168201915b505050505090806001018054611a9490612d9c565b80601f0160208091040260200160405190810160405280929190818152602001828054611ac090612d9c565b8015611b0d5780601f10611ae257610100808354040283529160200191611b0d565b820191906000526020600020905b815481529060010190602001808311611af057829003601f168201915b5050505050908060020154908060030154905084565b6000604051806060016040528084815260200183815260200160011515815250905080600360003373ffffffffffffffffffffffffffffffffffffffff1673ffffffffffffffffffffffffffffffffffffffff1681526020019081526020016000206000820151816000019080519060200190611ba19291906121dc565b506020820151816001015560408201518160020160006101000a81548160ff021916908315150217905550905050505050565b60015481565b60011515600560003373ffffffffffffffffffffffffffffffffffffffff1673ffffffffffffffffffffffffffffffffffffffff16815260200190815260200160002060020160009054906101000a900460ff16151514611c70576040517f08c379a0000000000000000000000000000000000000000000000000000000008152600401611c6790612c8e565b60405180910390fd5b6000600260008381526020019081526020016000209050600081600301805490509050600060405180606001604052808381526020018773ffffffffffffffffffffffffffffffffffffffff168152602001868152509050826003018190806001815401808255809150506001900390600052602060002090600302016000909190919091506000820151816000015560208201518160010160006101000a81548173ffffffffffffffffffffffffffffffffffffffff021916908373ffffffffffffffffffffffffffffffffffffffff1602179055506040820151816002015550507fefed7b98763026eeab78219b0816974fb4f56818ab8546317f0a2473fe850e27848387604051611d86939291906137bf565b60405180910390a1505050505050565b60011515600560003373ffffffffffffffffffffffffffffffffffffffff1673ffffffffffffffffffffffffffffffffffffffff16815260200190815260200160002060020160009054906101000a900460ff16151514611e2c576040517f08c379a0000000000000000000000000000000000000000000000000000000008152600401611e2390612c8e565b60405180910390fd5b6000600260006001548152602001908152602001600020905081816000019080519060200190611e5d9291906121dc565b5060015481600101819055506001806000828254611e7b9190612eb7565b925050819055507f8a0a41db407a6cb0066cbae19d90b07c19f10e171e35200eb9aff273654effab8160010154604051611eb59190612592565b60405180910390a15050565b60606000600460003373ffffffffffffffffffffffffffffffffffffffff1673ffffffffffffffffffffffffffffffffffffffff168152602001908152602001600020604051806080016040529081600082018054611f1f90612d9c565b80601f0160208091040260200160405190810160405280929190818152602001828054611f4b90612d9c565b8015611f985780601f10611f6d57610100808354040283529160200191611f98565b820191906000526020600020905b815481529060010190602001808311611f7b57829003601f168201915b50505050508152602001600182018054611fb190612d9c565b80601f0160208091040260200160405190810160405280929190818152602001828054611fdd90612d9c565b801561202a5780601f10611fff5761010080835404028352916020019161202a565b820191906000526020600020905b81548152906001019060200180831161200d57829003601f168201915b50505050508152602001600282015481526020016003820154815250509050806000015191505090565b600660405180608001604052808573ffffffffffffffffffffffffffffffffffffffff1681526020018473ffffffffffffffffffffffffffffffffffffffff16815260200183815260200142815250908060018154018082558091505060019003906000526020600020906004020160009091909190915060008201518160000160006101000a81548173ffffffffffffffffffffffffffffffffffffffff021916908373ffffffffffffffffffffffffffffffffffffffff16021790555060208201518160010160006101000a81548173ffffffffffffffffffffffffffffffffffffffff021916908373ffffffffffffffffffffffffffffffffffffffff160217905550604082015181600201556060820151816003015550508173ffffffffffffffffffffffffffffffffffffffff168373ffffffffffffffffffffffffffffffffffffffff167fccfcbe7d87150baa95519e68f762fa01b73a0b0f1f1f2c649cea60f79053115f83426040516121cf9291906137f6565b60405180910390a3505050565b8280546121e890612d9c565b90600052602060002090601f01602090048101928261220a5760008555612251565b82601f1061222357805160ff1916838001178555612251565b82800160010185558215612251579182015b82811115612250578251825591602001919060010190612235565b5b50905061225e9190612262565b5090565b5b8082111561227b576000816000905550600101612263565b5090565b6000604051905090565b600080fd5b600080fd5b6000819050919050565b6122a681612293565b81146122b157600080fd5b50565b6000813590506122c38161229d565b92915050565b600080600080608085870312156122e3576122e2612289565b5b60006122f1878288016122b4565b9450506020612302878288016122b4565b9350506040612313878288016122b4565b9250506060612324878288016122b4565b91505092959194509250565b600073ffffffffffffffffffffffffffffffffffffffff82169050919050565b600061235b82612330565b9050919050565b61236b81612350565b811461237657600080fd5b50565b60008135905061238881612362565b92915050565b600080604083850312156123a5576123a4612289565b5b60006123b3858286016122b4565b92505060206123c485828601612379565b9150509250929050565b600080fd5b600080fd5b6000601f19601f8301169050919050565b7f4e487b7100000000000000000000000000000000000000000000000000000000600052604160045260246000fd5b612421826123d8565b810181811067ffffffffffffffff821117156124405761243f6123e9565b5b80604052505050565b600061245361227f565b905061245f8282612418565b919050565b600067ffffffffffffffff82111561247f5761247e6123e9565b5b612488826123d8565b9050602081019050919050565b82818337600083830152505050565b60006124b76124b284612464565b612449565b9050828152602081018484840111156124d3576124d26123d3565b5b6124de848285612495565b509392505050565b600082601f8301126124fb576124fa6123ce565b5b813561250b8482602086016124a4565b91505092915050565b60008060006060848603121561252d5761252c612289565b5b600084013567ffffffffffffffff81111561254b5761254a61228e565b5b612557868287016124e6565b9350506020612568868287016122b4565b925050604061257986828701612379565b9150509250925092565b61258c81612293565b82525050565b60006020820190506125a76000830184612583565b92915050565b6000602082840312156125c3576125c2612289565b5b60006125d1848285016122b4565b91505092915050565b600081519050919050565b600082825260208201905092915050565b60005b838110156126145780820151818401526020810190506125f9565b83811115612623576000848401525b50505050565b6000612634826125da565b61263e81856125e5565b935061264e8185602086016125f6565b612657816123d8565b840191505092915050565b6000604082019050818103600083015261267c8185612629565b905061268b6020830184612583565b9392505050565b600081519050919050565b600082825260208201905092915050565b6000819050602082019050919050565b6126c781612350565b82525050565b60006126d983836126be565b60208301905092915050565b6000602082019050919050565b60006126fd82612692565b612707818561269d565b9350612712836126ae565b8060005b8381101561274357815161272a88826126cd565b9750612735836126e5565b925050600181019050612716565b5085935050505092915050565b6000602082019050818103600083015261276a81846126f2565b905092915050565b600061277d82612330565b9050919050565b61278d81612772565b811461279857600080fd5b50565b6000813590506127aa81612784565b92915050565b6000602082840312156127c6576127c5612289565b5b60006127d48482850161279b565b91505092915050565b6127e681612350565b82525050565b600060808201905061280160008301876127dd565b61280e60208301866127dd565b61281b6040830185612583565b6128286060830184612583565b95945050505050565b6000806040838503121561284857612847612289565b5b600083013567ffffffffffffffff8111156128665761286561228e565b5b612872858286016124e6565b9250506020612883858286016122b4565b9150509250929050565b6000602082840312156128a3576128a2612289565b5b60006128b184828501612379565b91505092915050565b60008115159050919050565b6128cf816128ba565b82525050565b600060608201905081810360008301526128ef8186612629565b90506128fe6020830185612583565b61290b60408301846128c6565b949350505050565b60008060006060848603121561292c5761292b612289565b5b600061293a868287016122b4565b935050602061294b868287016122b4565b925050604061295c868287016122b4565b9150509250925092565b60008060006060848603121561297f5761297e612289565b5b600084013567ffffffffffffffff81111561299d5761299c61228e565b5b6129a9868287016124e6565b935050602084013567ffffffffffffffff8111156129ca576129c961228e565b5b6129d6868287016124e6565b92505060406129e7868287016122b4565b9150509250925092565b600061ffff82169050919050565b612a08816129f1565b8114612a1357600080fd5b50565b600081359050612a25816129ff565b92915050565b60008060008060008060c08789031215612a4857612a47612289565b5b6000612a5689828a016122b4565b9650506020612a6789828a016122b4565b9550506040612a7889828a016122b4565b9450506060612a8989828a016122b4565b9350506080612a9a89828a01612a16565b92505060a0612aab89828a01612a16565b9150509295509295509295565b60006080820190508181036000830152612ad28187612629565b90508181036020830152612ae68186612629565b9050612af56040830185612583565b612b026060830184612583565b95945050505050565b600080600060608486031215612b2457612b23612289565b5b6000612b3286828701612379565b9350506020612b43868287016122b4565b9250506040612b54868287016122b4565b9150509250925092565b600060208284031215612b7457612b73612289565b5b600082013567ffffffffffffffff811115612b9257612b9161228e565b5b612b9e848285016124e6565b91505092915050565b60006020820190508181036000830152612bc18184612629565b905092915050565b600080600060608486031215612be257612be1612289565b5b6000612bf086828701612379565b9350506020612c0186828701612379565b9250506040612c12868287016122b4565b9150509250925092565b7f4f6e6c792050726f6475636572732063616e206163636573732074686973206660008201527f6561747572652e00000000000000000000000000000000000000000000000000602082015250565b6000612c786027836125e5565b9150612c8382612c1c565b604082019050919050565b60006020820190508181036000830152612ca781612c6b565b9050919050565b600060a082019050612cc36000830188612583565b612cd06020830187612583565b612cdd6040830186612583565b612cea6060830185612583565b612cf76080830184612583565b9695505050505050565b7f796f7520617265206e6f7420612070726f73756d657200000000000000000000600082015250565b6000612d376016836125e5565b9150612d4282612d01565b602082019050919050565b60006020820190508181036000830152612d6681612d2a565b9050919050565b7f4e487b7100000000000000000000000000000000000000000000000000000000600052602260045260246000fd5b60006002820490506001821680612db457607f821691505b60208210811415612dc857612dc7612d6d565b5b50919050565b7f4e487b7100000000000000000000000000000000000000000000000000000000600052601260045260246000fd5b7f4e487b7100000000000000000000000000000000000000000000000000000000600052601160045260246000fd5b6000612e3782612293565b9150612e4283612293565b925082612e5257612e51612dce565b5b828204905092915050565b6000612e6882612293565b9150612e7383612293565b9250817fffffffffffffffffffffffffffffffffffffffffffffffffffffffffffffffff0483118215151615612eac57612eab612dfd565b5b828202905092915050565b6000612ec282612293565b9150612ecd83612293565b9250827fffffffffffffffffffffffffffffffffffffffffffffffffffffffffffffffff03821115612f0257612f01612dfd565b5b828201905092915050565b7f5472616e73616374696f6e20696e646578206f7574206f6620626f756e647300600082015250565b6000612f43601f836125e5565b9150612f4e82612f0d565b602082019050919050565b60006020820190508181036000830152612f7281612f36565b9050919050565b7f4e487b7100000000000000000000000000000000000000000000000000000000600052603260045260246000fd5b60008190508160005260206000209050919050565b60008154612fca81612d9c565b612fd481866125e5565b94506001821660008114612fef576001811461300157613034565b60ff1983168652602086019350613034565b61300a85612fa8565b60005b8381101561302c5781548189015260018201915060208101905061300d565b808801955050505b50505092915050565b600081549050919050565b600082825260208201905092915050565b60008190508160005260206000209050919050565b60008160001c9050919050565b6000819050919050565b60006130986130938361306e565b61307b565b9050919050565b6130a881612293565b82525050565b600061ffff82169050919050565b60006130cf6130ca8361306e565b6130ae565b9050919050565b6130df816129f1565b82525050565b60008160101c9050919050565b6000613105613100836130e5565b6130ae565b9050919050565b60c08201600080830154905061312181613085565b61312e600086018261309f565b506001830154905061313f81613085565b61314c602086018261309f565b506002830154905061315d81613085565b61316a604086018261309f565b506003830154905061317b81613085565b613188606086018261309f565b5060048301549050613199816130bc565b6131a660808601826130d6565b506131b0816130f2565b6131bd60a08601826130d6565b5050505050565b60006131d0838361310c565b60c08301905092915050565b6000600582019050919050565b60006131f48261303d565b6131fe8185613048565b935061320983613059565b8060005b83811015613239578161322088826131c4565b975061322b836131dc565b92505060018101905061320d565b5085935050505092915050565b600081549050919050565b600082825260208201905092915050565b60008190508160005260206000209050919050565b600073ffffffffffffffffffffffffffffffffffffffff82169050919050565b60006132aa6132a58361306e565b613277565b9050919050565b6060820160008083015490506132c681613085565b6132d3600086018261309f565b50600183015490506132e481613297565b6132f160208601826126be565b506002830154905061330281613085565b61330f604086018261309f565b5050505050565b600061332283836132b1565b60608301905092915050565b6000600382019050919050565b600061334682613246565b6133508185613251565b935061335b83613262565b8060005b8381101561338b57816133728882613316565b975061337d8361332e565b92505060018101905061335f565b5085935050505092915050565b600081549050919050565b600082825260208201905092915050565b60008190508160005260206000209050919050565b6060820160008083015490506133de81613085565b6133eb600086018261309f565b50600183015490506133fc81613085565b613409602086018261309f565b506002830154905061341a81613085565b613427604086018261309f565b5050505050565b600061343a83836133c9565b60608301905092915050565b6000600382019050919050565b600061345e82613398565b61346881856133a3565b9350613473836133b4565b8060005b838110156134a3578161348a888261342e565b975061349583613446565b925050600181019050613477565b5085935050505092915050565b600081549050919050565b600082825260208201905092915050565b60008190508160005260206000209050919050565b6080820160008083015490506134f681613085565b613503600086018261309f565b506001830154905061351481613085565b613521602086018261309f565b506002830154905061353281613085565b61353f604086018261309f565b506003830154905061355081613085565b61355d606086018261309f565b5050505050565b600061357083836134e1565b60808301905092915050565b6000600482019050919050565b6000613594826134b0565b61359e81856134bb565b93506135a9836134cc565b8060005b838110156135d957816135c08882613564565b97506135cb8361357c565b9250506001810190506135ad565b5085935050505092915050565b600060a08201905081810360008301526136008188612fbd565b9050818103602083015261361481876131e9565b90508181036040830152613628818661333b565b9050818103606083015261363c8185613453565b905081810360808301526136508184613589565b90509695505050505050565b7f796f7520617265206e6f7420612070726f647563657200000000000000000000600082015250565b60006136926016836125e5565b915061369d8261365c565b602082019050919050565b600060208201905081810360008301526136c181613685565b9050919050565b60006136d382612293565b91506136de83612293565b9250828210156136f1576136f0612dfd565b5b828203905092915050565b60006080820190506137116000830187612583565b61371e6020830186612583565b61372b6040830185612583565b6137386060830184612583565b95945050505050565b61374a816129f1565b82525050565b600060e082019050613765600083018a612583565b6137726020830189612583565b61377f6040830188612583565b61378c6060830187612583565b6137996080830186612583565b6137a660a0830185613741565b6137b360c0830184613741565b98975050505050505050565b60006060820190506137d46000830186612583565b6137e16020830185612583565b6137ee6040830184612583565b949350505050565b600060408201905061380b6000830185612583565b6138186020830184612583565b939250505056fea2646970667358221220e5603942497082fa6caaff349247196c639e68a4d9a9cfc7621529766adecbff64736f6c634300080b0033",
  "immutableReferences": {},
  "source": "// SPDX-License-Identifier: MIT\r\npragma solidity ^0.8.0;\r\n\r\ncontract Microgrid {\r\n    uint256 public perUnit = 4334633723450368;\r\n    uint public microGridId = 0;\r\n\r\n    struct Prosumer {\r\n        string name;\r\n        // uint wallet1;\r\n        // uint energyBalance;\r\n        uint uinqueID;\r\n        bool isProsumer;\r\n    }\r\n\r\n    struct Consumer {\r\n        string name;\r\n        string micrometerid;\r\n        uint energyBalance;\r\n        uint wallet;\r\n    }\r\n\r\n    struct Producer {\r\n        string name;\r\n        uint uniqueID;\r\n        bool isProducer;\r\n    }\r\n\r\n    struct Battery {\r\n        uint uniqueID;\r\n        uint minCapacity;\r\n        uint maxCapacity;\r\n        uint Charge;\r\n        uint16 maxEfficiency;\r\n        uint16 initSoc;\r\n    }\r\n\r\n    struct Load {\r\n        uint loadId;\r\n        address userAddress;\r\n        uint energyRequired;\r\n    }\r\n\r\n    struct GreenEnergy {\r\n        uint uniqueID;\r\n        uint charge;\r\n        uint energyProduction;\r\n    }\r\n\r\n    struct Grid {\r\n        uint uniqueID;\r\n        uint charge;\r\n        uint maxImport;\r\n        uint maxExport;\r\n    }\r\n    struct Transaction {\r\n        address from;\r\n        address to;\r\n        uint256 amount;\r\n        uint256 timestamp;\r\n    }\r\n\r\n    struct MicroGrid {\r\n        string microGridName;\r\n        uint uniqueId;\r\n        Battery[] batteryUsing;\r\n        Load[] loads;\r\n        GreenEnergy[] greenEnergies;\r\n        Grid[] powerGrid;\r\n        address[] Prosumers;\r\n        address[] Consumers;\r\n        address[] Producers;\r\n    }\r\n\r\n    mapping(uint => MicroGrid) public microGrids;\r\n    mapping(address => Prosumer) public address_Prosumer;\r\n    mapping(address => Consumer) public address_Consumer;\r\n    mapping(address => Producer) public address_Producer;\r\n\r\n    event microgridDetails(\r\n        string name,\r\n        Battery[] batteryUsing,\r\n        Load[] loads,\r\n        GreenEnergy[] greenEnergies,\r\n        Grid[] powerGrid\r\n    );\r\n    event EnergyTransferred(\r\n        address indexed from,\r\n        address indexed to,\r\n        uint256 transferAmount\r\n    );\r\n    event microGridAdded(uint uniqueId);\r\n    event addLoadData(uint microGridUniqueId, uint loadId, uint energyRequired);\r\n    event addBatteryData(\r\n        uint microGridUniqueId,\r\n        uint batteryIndex,\r\n        uint minCapacity,\r\n        uint maxCapacity,\r\n        uint Charge,\r\n        uint16 maxEfficiency,\r\n        uint16 initSoc\r\n    );\r\n    event addGreenEnergyData(\r\n        uint microGridUniqueId,\r\n        uint GEId,\r\n        uint charge,\r\n        uint energyProduction\r\n    );\r\n    event addGridData(\r\n        uint microGridUniqueId,\r\n        uint gridIndex,\r\n        uint charge,\r\n        uint maxImport,\r\n        uint maxExport\r\n    );\r\n\r\n    function createMicroGrid(string memory name) public {\r\n        require(\r\n            address_Producer[msg.sender].isProducer == true,\r\n            \"Only Producers can access this feature.\"\r\n        );\r\n        MicroGrid storage tempMicroGrid = microGrids[microGridId];\r\n        tempMicroGrid.microGridName = name;\r\n        tempMicroGrid.uniqueId = microGridId;\r\n        microGridId += 1;\r\n        emit microGridAdded(tempMicroGrid.uniqueId);\r\n    }\r\n\r\n    function viewMicrogridDetails(uint id) public {\r\n        require(\r\n            address_Producer[msg.sender].isProducer == true,\r\n            \"Only Producers can access this feature.\"\r\n        );\r\n        MicroGrid storage temp = microGrids[id];\r\n        emit microgridDetails(\r\n            temp.microGridName,\r\n            temp.batteryUsing,\r\n            temp.loads,\r\n            temp.greenEnergies,\r\n            temp.powerGrid\r\n        );\r\n    }\r\n\r\n    function addBattery(\r\n        uint uniqueId,\r\n        uint minCapacity,\r\n        uint maxCapacity,\r\n        uint Charge,\r\n        uint16 maxEfficiency,\r\n        uint16 initSoc\r\n    ) public {\r\n        require(\r\n            address_Producer[msg.sender].isProducer == true,\r\n            \"Only Producers can access this feature.\"\r\n        );\r\n        MicroGrid storage tempMicroGrid = microGrids[uniqueId];\r\n        uint batteryId = tempMicroGrid.batteryUsing.length;\r\n        tempMicroGrid.batteryUsing.push(\r\n            Battery(\r\n                batteryId,\r\n                minCapacity,\r\n                maxCapacity,\r\n                Charge,\r\n                maxEfficiency,\r\n                initSoc\r\n            )\r\n        );\r\n        emit addBatteryData(\r\n            uniqueId,\r\n            batteryId,\r\n            minCapacity,\r\n            maxCapacity,\r\n            Charge,\r\n            maxEfficiency,\r\n            initSoc\r\n        );\r\n    }\r\n\r\n    function addLoad(\r\n        address userAddress,\r\n        uint energyRequired,\r\n        uint uniqueId\r\n    ) public {\r\n        require(\r\n            address_Producer[msg.sender].isProducer == true,\r\n            \"Only Producers can access this feature.\"\r\n        );\r\n        MicroGrid storage tempMicroGrid = microGrids[uniqueId];\r\n        uint loadId = tempMicroGrid.loads.length;\r\n        Load memory loadItem = Load(loadId, userAddress, energyRequired);\r\n        tempMicroGrid.loads.push(loadItem);\r\n        emit addLoadData(uniqueId, loadId, energyRequired);\r\n    }\r\n\r\n    function addGreenEnergy(\r\n        uint uniqueId,\r\n        uint charge,\r\n        uint energyProduction\r\n    ) public {\r\n        require(\r\n            address_Producer[msg.sender].isProducer == true,\r\n            \"Only Producers can access this feature.\"\r\n        );\r\n        MicroGrid storage tempMicroGrid = microGrids[uniqueId];\r\n        uint greenEnergyId = tempMicroGrid.greenEnergies.length;\r\n        tempMicroGrid.greenEnergies.push(\r\n            GreenEnergy(greenEnergyId, charge, energyProduction)\r\n        );\r\n        emit addGreenEnergyData(\r\n            uniqueId,\r\n            greenEnergyId,\r\n            charge,\r\n            energyProduction\r\n        );\r\n    }\r\n\r\n    function addPowerGrid(\r\n        uint uniqueId,\r\n        uint charge,\r\n        uint maxImport,\r\n        uint maxExport\r\n    ) public {\r\n        require(\r\n            address_Producer[msg.sender].isProducer == true,\r\n            \"Only Producers can access this feature.\"\r\n        );\r\n        MicroGrid storage tempMicroGrid = microGrids[uniqueId];\r\n        uint gridId = tempMicroGrid.powerGrid.length;\r\n        tempMicroGrid.powerGrid.push(\r\n            Grid(gridId, charge, maxImport, maxExport)\r\n        );\r\n        emit addGridData(uniqueId, gridId, charge, maxImport, maxExport);\r\n    }\r\n\r\n    function addProducer(string memory name, uint uniqueID) public {\r\n        Producer memory producer = Producer(name, uniqueID, true);\r\n        address_Producer[msg.sender] = producer;\r\n    }\r\n\r\n    function addAnotherProducer(\r\n        string memory name,\r\n        uint uniqueID,\r\n        address producerAddress\r\n    ) public {\r\n        Producer memory producer = Producer(name, uniqueID, true);\r\n        address_Producer[producerAddress] = producer;\r\n    }\r\n\r\n    function addProsumer(string memory name, uint uniqueID) public {\r\n        Prosumer memory prosumer = Prosumer(name, uniqueID, true);\r\n        address_Prosumer[msg.sender] = prosumer;\r\n    }\r\n\r\n    function addAnotherProsumer(\r\n        string memory name,\r\n        uint uniqueID,\r\n        address prosumerAddress\r\n    ) public {\r\n        Prosumer memory prosumer = Prosumer(name, uniqueID, true);\r\n        address_Prosumer[prosumerAddress] = prosumer;\r\n    }\r\n\r\n    function addProducerToMicroGrid(uint uniqueId, address producer) public {\r\n        require(\r\n            address_Producer[producer].isProducer,\r\n            \"you are not a producer\"\r\n        );\r\n        microGrids[uniqueId].Producers.push(producer);\r\n    }\r\n\r\n    function addConsumerToMicroGrid(uint uniqueId, address producer) public {\r\n        // require(address_Producer[msg.sender].isProducer,\"you are not a producer\");\r\n        microGrids[uniqueId].Consumers.push(producer);\r\n    }\r\n\r\n    function addProsumerToMicroGrid(uint uniqueId, address prosumer) public {\r\n        require(\r\n            address_Prosumer[prosumer].isProsumer,\r\n            \"you are not a prosumer\"\r\n        );\r\n        microGrids[uniqueId].Prosumers.push(prosumer);\r\n    }\r\n\r\n    function showAllProducers(\r\n        uint uniqueId\r\n    ) public view returns (address[] memory) {\r\n        return microGrids[uniqueId].Producers;\r\n    }\r\n\r\n    function showAllProsumer(\r\n        uint uniqueId\r\n    ) public view returns (address[] memory) {\r\n        return microGrids[uniqueId].Prosumers;\r\n    }\r\n\r\n    function addConsumer(\r\n        string memory name,\r\n        string memory micrometerid,\r\n        uint energyBalance\r\n    ) public {\r\n        uint wallet = msg.sender.balance / 1 ether;\r\n        Consumer memory consumer = Consumer(\r\n            name,\r\n            micrometerid,\r\n            energyBalance,\r\n            wallet\r\n        );\r\n        address_Consumer[msg.sender] = consumer;\r\n    }\r\n\r\n    // Function to purchase energy  consumer -> prosumer\r\n\r\n    //     function purchaseEnergy_to_Producer(address payable producer) public payable  {\r\n    //         require(address_Producer[producer].isProducer, \"Invalid producer address\");\r\n    //         require(msg.value <=msg.sender.balance, \"Incorrect Ether value provided\");\r\n\r\n    //         uint energyUnits = msg.value/perUnit;\r\n    //         producer.transfer(msg.value);\r\n    //         address_Consumer[msg.sender].energyBalance += energyUnits;\r\n    //         emit EnergyTransferred(msg.sender, producer, energyUnits);\r\n\r\n    //     }\r\n\r\n    //     function purchaseEnergy_to_Prosumer(address payable prosumerAddress, address payable producerAddress) public payable  {\r\n    //     require(address_Prosumer[prosumerAddress].isProsumer, \"Invalid prosumer address\");\r\n    //     require(msg.value <= msg.sender.balance, \"Incorrect Ether value p68rovided\");\r\n\r\n    //     uint energyUnits = msg.value / perUnit;\r\n    //     uint producerShare = (msg.value * 10) / 100;\r\n\r\n    //     prosumerAddress.transfer(msg.value - producerShare);\r\n    //     producerAddress.transfer(producerShare);\r\n\r\n    //     address_Consumer[msg.sender].energyBalance += energyUnits;\r\n\r\n    //     emit EnergyTransferred(msg.sender, prosumerAddress, energyUnits);\r\n    //     // emit ProducerShareTransferred(msg.sender, producerAddress, producerShare);\r\n    // }\r\n    function purchaseEnergy_to_Producer(\r\n        address payable producerAddress\r\n    ) public payable {\r\n\r\n\r\n        uint energyUnits = msg.value / perUnit;\r\n        uint producerShare = (msg.value * 10) / 100;\r\n\r\n        producerAddress.transfer(producerShare);\r\n\r\n        address_Consumer[msg.sender].energyBalance += energyUnits;\r\n\r\n        emit EnergyTransferred(msg.sender, producerAddress, energyUnits);\r\n    }\r\n\r\n    function purchaseEnergy_to_Prosumer(\r\n        address payable prosumerAddress\r\n    ) public payable {\r\n\r\n\r\n\r\n        uint energyUnits = msg.value / perUnit;\r\n        uint producerShare = (msg.value * 10) / 100;\r\n\r\n        prosumerAddress.transfer(msg.value - producerShare);\r\n\r\n        address_Consumer[msg.sender].energyBalance += energyUnits;\r\n\r\n        emit EnergyTransferred(msg.sender, prosumerAddress, energyUnits);\r\n        // emit ProducerShareTransferred(msg.sender, producerAddress, producerShare);\r\n    }\r\n\r\n    // function Prosumer_to_Producer(address payable producer) public payable {\r\n    //     require(address_producer[producer].isProducer,\"Invalid producer address\");\r\n    //     require(address_Prosumer[msg.sender],\"Invalid producer address\");\r\n    //     uint256 To_be_paid =0;\r\n\r\n    // }\r\n\r\n    // // Function to sell excess energy,  prosumer -> consumer\r\n    // function sellEnergy(uint transferAmount) public {\r\n    //     require(address_Prosumer[msg.sender].energyBalance >= transferAmount, \"Insufficient energy balance\");\r\n    //     Prosumer storage prosumer = address_Prosumer[msg.sender];\r\n    //     prosumer.energyBalance -= transferAmount;\r\n    //     prosumer.wallet1 += transferAmount * perUnit;\r\n\r\n    //     // Emit an event to record the energy sale\r\n    //     emit EnergyTransferred(msg.sender, address(this), transferAmount * perUnit);\r\n    // }\r\n\r\n    // Function to transfer energy from one user to another\r\n    // function transferEnergy(address to, uint transferAmount) public {\r\n    //     require(address_Prosumer[msg.sender].energyBalance >= transferAmount, \"Not enough energy to transfer\");\r\n\r\n    //     Prosumer storage senderDetails = address_Prosumer[msg.sender];\r\n    //     Prosumer storage receiverDetails = address_Prosumer[to];\r\n\r\n    //     senderDetails.energyBalance -= transferAmount;\r\n    //     receiverDetails.energyBalance += transferAmount;\r\n\r\n    //     // Emit an event to record the energy transfer\r\n    //     emit EnergyTransferred(msg.sender, to, transferAmount);\r\n    // }\r\n\r\n    Transaction[] public transactions;\r\n\r\n    event TransactionAdded(\r\n        address indexed from,\r\n        address indexed to,\r\n        uint256 amount,\r\n        uint256 timestamp\r\n    );\r\n\r\n    function addTransaction(\r\n        address _from,\r\n        address _to,\r\n        uint256 _amount\r\n    ) public {\r\n        transactions.push(\r\n            Transaction({\r\n                from: _from,\r\n                to: _to,\r\n                amount: _amount,\r\n                timestamp: block.timestamp\r\n            })\r\n        );\r\n\r\n        emit TransactionAdded(_from, _to, _amount, block.timestamp);\r\n    }\r\n\r\n    function getTransactionCount() public view returns (uint256) {\r\n        return transactions.length;\r\n    }\r\n\r\n    function getTransaction(\r\n        uint256 index\r\n    )\r\n        public\r\n        view\r\n        returns (address from, address to, uint256 amount, uint256 timestamp)\r\n    {\r\n        require(index < transactions.length, \"Transaction index out of bounds\");\r\n        Transaction storage transaction = transactions[index];\r\n        return (\r\n            transaction.from,\r\n            transaction.to,\r\n            transaction.amount,\r\n            transaction.timestamp\r\n        );\r\n    }\r\n\r\n    // function batteryData() public view returns (uint) {\r\n    //     MicroGrid storage tempMicroGrid = microGrids[0];\r\n\r\n    //     require(tempMicroGrid.batteryUsing.length > 0, \"No batteries in Microgrid 0\");\r\n    //     require(tempMicroGrid.batteryUsing.length > 0, \"No battery found at index 0\");\r\n\r\n    //     Battery storage battery = tempMicroGrid.batteryUsing[0];\r\n    //     return battery.Charge;\r\n    // }\r\n    function consumerData() public view returns (string memory) {\r\n        Consumer memory data = address_Consumer[msg.sender];\r\n        return data.name;\r\n    }\r\n\r\n    function showMicroGridId() public view returns (uint) {\r\n        return microGridId;\r\n    }\r\n}\r\n",
  "sourcePath": "C:\\Users\\rack\\OneDrive\\Desktop\\microgrid\\project1\\blockChain\\contracts\\Microgrid.sol",
  "compiler": {
    "name": "solc",
    "version": "0.8.11+commit.d7f03943.Emscripten.clang"
  },
  "schemaVersion": "3.4.16",
  "updatedAt": "2024-01-31T05:46:58.850Z",
  "networkType": "ethereum",
  "devdoc": {
    "kind": "dev",
    "methods": {},
    "version": 1
  },
  "userdoc": {
    "kind": "user",
    "methods": {},
    "version": 1
  }
}